:020000040000FA
:0600000093EF04F0120072
:020006000000F8
:08000800019E08D0019E09AE23
:1000100005D0086C091EE86A0922018E09C003F0A8
:1000200008C002F0136A126A8E0E046E056AE1EFD0
:1000300001F00F7E016A1DEC02F035EC02F001B612
:10004000C5EF01F001A20AD001AA03D001BEC5EF9D
:1000500001F001A4D1EF01F0CEEF01F001AA05D02B
:1000600001ACD1EF01F0CEEF01F001A00AD001A860
:1000700008D001BE04D001A402D0DAEF01F0DEEF17
:1000800001F0126A056A0F500A5C116E10E307C096
:1000900013F008C002F009C003F00AC010F00CC051
:1000A00007F00DC008F00EC009F0013A09D00CC0ED
:1000B00013F00DC002F00EC003F00FC010F0116C71
:1000C000019E01BC018E10C004F001B00DEF02F0E2
:1000D0001A0E11600DEF02F0046A0A6A01A408D03A
:1000E000076C081E091E0A1EE86A082209220A2255
:1000F00001AC08D0136C021E031E041EE86A022223
:1001000003220422066A115207E00A340932083237
:1001100007320632112EF9D7075013260850022253
:10012000095003220A50042206C012F0019E04AEB8
:100130000BD0126C131E021E031E041EE86A13224B
:10014000022203220422018E04A006D0D8800332AA
:10015000023213321232102A10C004F0E1EF01F023
:10016000016A1DEC02F035EC02F001B6C5EF01F0BA
:1001700001A205D001BAC5EF01F0CCEF01F001BA40
:10018000D8EF01F001A005D001B8C5EF01F0D8EF1C
:1001900001F001B8CCEF01F0056A7F0E0A24046E6D
:1001A000E86A05220F50045EE86A055A1A0E106EBE
:1001B0000A6A126A136A026A036A0C50075E0D50DB
:1001C000085A0E50095A000E0A5A09E70C50072621
:1001D0000D5008220E500922000E0A2201D0128A68
:1001E000D8900736083609360A36D89012361336B4
:1001F00002360336102EE1D7095008100710D8A494
:10020000128AE1EF01F0016A1DEC02F035EC02F018
:1002100001B6C5EF01F001A205D001B8C5EF01F0AC
:10022000CCEF01F001AA05D001B0C5EF01F0CCEF91
:1002300001F001B002D001A802D0D8EF01F0056AA8
:100240000F500A24046EE86A05227E0E045EE86AF6
:10025000055A126A136A026A036A0E500902F4CF41
:1002600003F0F3CF02F00D500902F3501326F450BF
:100270000222000E03220E500802F3501326F450FF
:100280000222000E03220C500902F3501226F450F1
:100290001322000E022203220D500802F3501226F0
:1002A000F4501322000E022203220E500702F350D4
:1002B0001226F4501322000E022203220C500802D0
:1002C000F4501226000E1322022203220D500702C0
:1002D000F4501226000E132202220322E1EF01F055
:1002E000006A0EAE79EF01F00D6C0E1EE86A0E2268
:1002F000001E09AE81EF01F0086C091EE86A0922B0
:10030000001E5DEC04F009BE91EF01F000AE000CA0
:10031000086C091EE86A0922046C051EE86A0522B9
:10032000000C00BE88EF01F00188FF0C016A1DEC93
:1003300002F001B6A0EF01F001A20ED001B405D089
:100340007F0E096EFF0E086E1FD0800E096E086AC0
:100350001BD0096A086A18D001B0FBD78F0E0A605B
:10036000EDD77E0E0A64F5D78E0E0A5C05E0D890B4
:10037000093208320A2AF8D701A406D0086C091EEF
:10038000E86A092209AEE5D712007F0E0A6EFF0E59
:10039000096E086E076E12007F0E01BEFF0E0A6E18
:1003A00002D07F0E0A6E800E096E086A076AF3D7C4
:1003B00001AE04D0800E0A6E096AF7D70A6A096A8C
:1003C000F4D70350021013101210F8E005BEF0D756
:1003D00003BE0CD004500510EBE0D8901236133653
:1003E000023603360406D8A00506F2D70550D4E13C
:1003F0000428D2E012AE11D07F0E121402E113A035
:100400000CD0132AE86A0222032207E3D8800332C1
:1004100002321332042A0428BFE00450C9E013C09A
:1004200007F002C008F00334096E04300A6E093286
:100430000A9E01BE0A8ECBEF01F009360A3602E3AE
:100440000184017E06E101800A6A096A086A076A76
:1004500012000A2803E0D88009321200D89009322D
:1004600002E101821200018612000E360F3602E30D
:10047000018C017E06E101880F6A0E6A0D6A0C6A22
:1004800012000F2803E0D8800E321200D8900E32EE
:06049000EAE1018A1200FE
:0A049600D9CFE6FFE1CFD9FF0A0E2F
:1004A000E12662D88A868150040B01E0010EE66ED7
:1004B000D950060FE96EDACFEAFFE552E750EE6E4B
:1004C000ED6A010EE66E46EC04F0E55286D9040EA4
:1004D000F3CFDBFF050EF4CFDBFF320E146E156A8F
:1004E000040EDBCF08F0050EDBCF09F014C00DF0D1
:1004F00015C00EF070EC01F0040E08C0DBFF050E15
:1005000009C0DBFF3ED8F3CFDEFFF4CFDDFFDECF47
:1005100014F0DDCF15F0040EDBCF16F0050EDBCFA7
:1005200017F017501518E8AE02D0153404D0145047
:10053000165C1550175807E28A96010EE66E73ECAA
:1005400004F0E55206D08A86010EE66E73EC04F0E4
:10055000E552BCD70A0EE15C02E2E16AE552E16EC7
:10056000E552E7CFD9FF120092809282928492984E
:10057000939693829388C26A780EC16E9A0EC06E6B
:100580001200D9CFE6FFE1CFD9FF0A0EE126060E11
:10059000DB6A070EDB6A080EDB6A090EDB6A040EF3
:1005A000DB6A050EDB6A040EDBCF14F0050EDBCF31
:1005B00015F0D890155004E6C80E145C000E1558BE
:1005C00001E3A1D0030EC26EC2B2FED7C3CFDEFFDD
:1005D000C4CFDDFF070EC26EC2B2FED7020EC3CF7C
:1005E000DBFF030EC4CFDBFF020EDBCF14F0030EE4
:1005F000DBCF15F0DECF16F0DDCF17F01550171852
:10060000E8AE02D0173404D01650145C17501558B9
:1006100013E3020EDBCF16F0030EDBCF17F0DE5034
:10062000165C146EDD501758156E020E14C0DBFFF9
:10063000030E15C0DBFF27D0020EDBCF14F0030E34
:10064000DBCF15F0DECF16F0DDCF17F01550171801
:10065000E8AE02D0173404D01650145C1750155869
:1006600012E2DECF16F0DDCF17F0020EDB50165C83
:10067000146E030EDB501758156E020E14C0DBFF0C
:10068000030E15C0DBFF060EDBCF14F0070EDBCF29
:1006900015F0080EDBCF16F0090EDBCF17F0020EB7
:1006A000DBCF08F0030EDBCF09F006EC00F007C04B
:1006B00018F008C019F009C01AF00AC01BF018C0E1
:1006C0000CF019C00DF01AC00EF01BC00FF014C0D2
:1006D00007F015C008F016C009F017C00AF01AECB0
:1006E00000F0060E07C0DBFF070E08C0DBFF080E98
:1006F00009C0DBFF090E0AC0DBFF040EDB2A050E72
:1007000001E3DB2A50D7060EDBCF14F0070EDBCF58
:1007100015F0080EDBCF16F0090EDBCF17F00C6AD0
:100720000D6A480E0E6E430E0F6E14C007F015C012
:1007300008F016C009F017C00AF0B0EC00F096EC13
:1007400001F0020E08C0DBFF030E09C0DBFF020E42
:10075000DBCF08F0030EDBCF09F006EC00F007C09A
:1007600014F008C015F009C016F00AC017F09A0E70
:100770000C6E990E0D6E0E6E400E0F6E14C007F0CB
:1007800015C008F016C009F017C00AF003EC01F01C
:1007900096EC01F0020E08C0DBFF030E09C0DBFF80
:1007A000060EDB6A070EDB6A080EDB6A090EDB6ADF
:1007B000020EDBCF14F0030EDBCF15F014C0F3FFF5
:1007C00015C0F4FF0A0EE15C03E200D0E16AE552D5
:1007D000E16EE552E7CFD9FF12000B0EC26EC2B236
:0E07E000FED7C3CFF3FFC4CFF4FF00D012004A
:0207EE00060EF5
:1007F000F66E000EF76E000EF86E00010900F5505F
:10080000C56F0900F550C66F03E1C56701D03DD043
:100810000900F550C06F0900F550C16F0900F5508F
:10082000C26F09000900F550E96E0900F550EA6E43
:10083000090009000900F550C36F0900F550C46FA5
:1008400009000900F6CFC7F0F7CFC8F0F8CFC9F01C
:10085000C0C0F6FFC1C0F7FFC2C0F8FF0001C3531C
:1008600002E1C45307E00900F550EE6EC307F8E259
:10087000C407F9D7C7C0F6FFC8C0F7FFC9C0F8FF63
:0C0880000001C507000EC65BBFD71200C8
:04088C00FF0EE35028
:100890001D6EEF0E01D0F30EE76EE72E4DEF04F064
:1008A0000C0E1C6EE76AE72E53EF04F01C2E52EF7D
:0A08B00004F01D2E4BEF04F01200BF
:0608BA00056A046A100E3D
:1008C000E76ED89008360936043605360D50045CBC
:1008D0000E50055805E30D50045E0E50055A082AC7
:0608E000E72EF0D7120024
:0A08E600FF0EE3501D6E480E01D016
:1008F0004C0EE76EE72EFED7E76AE72EFED71D2ED9
:06090000F7D70000120011
:0A090600000EF36E00EE00F0010E8B
:1009100001D81200EA6002D0EE6AFCD7F350E96019
:060920001200EE6AFCD794
:0A09260010EE80F020EE80F0F86A79
:10093000019CF7EC03F0A1EC04F04BEC02F0FBD7C8
:020940001200A3
:020942001200A1
:00000001FF
